:020000040000fa
:080000000002040000000000f2
:020000040000fa
:10000800d2020000d2020000d2020000d202000098
:10001800d2020000d2020000d2020000d202000088
:10002800d2020000d2020000d2020000d202000078
:10003800d2020000d2020000d2020000d202000068
:020000040000fa
:10040000ef4821000eff2c000e01880000000000c4
:10041000000020000000e000020032000001200087
:10042000200288000c000700e0f6200001002000f8
:100430000f000700000020000000e0000200320072
:100440000000020000000000420e02000000000058
:100450000040da000000fe00c01d20000000e000a7
:1004600002003200002020009001880000000600f9
:10047000a1028800800078000000eb001a0037001d
:10048000e280400054a0b4009101ba00e280400034
:1004900054a0b4009102ba00e280400054a0b4001d
:1004a0000002eb00472bde00f507b200a601880032
:1004b000602ce10008003a000049eb000201e8006e
:1004c000020039003420ec0002f0a0008301e900b2
:1004d000f9ff3e00040037006128e100010032000e
:1004e0000082eb00040007001101ba000200e000e6
:1004f000e3ff3a000000060004d0a300e20f490029
:100500001c003900810278003549ba000201e80078
:10051000020039003420ec0002f0a0008301e90061
:100520000f0032002549ba000201e800020039003c
:100530003420ec0002f0a0008301e9000800320042
:100540000400e0000600320015c9ba000201e8000c
:10055000020039003420ec0002f0a0008301e90021
:100560008180e80054a0b4000300e000e2ff3a00fc
:10057000000006009102ba00055978008301e900e5
:10058000f7ff3200c82ade00055978008301e90030
:10059000f3ff32000400e000f1ff320011d9ba008d
:0c05a000eeff37000040da000000fe0013
:020000040000fa
:1005ac00000000000000000000000000005f0000e0
:1005bc00000000000007000000070000001400000d
:1005cc007f1400007f140000242a00006b2a000016
:1005dc00122300001308000064620000364900007a
:1005ec005532000040000000090700000000000028
:1005fc00001c00002241000000000000412200000d
:10060c001c000000140800003e0800001408000044
:10061c00083e0000080800000050000030000000f8
:10062c000008000008080000080800000060000036
:10063c006000000000200000100800000402000010
:10064c003e510000494500003e000000427f000082
:10065c0040000000426100005149000046210000aa
:10066c00414500004b31000018140000127f0000bf
:10067c001027000045450000453900003c4a0000a9
:10068c004949000030030000710900000503000017
:10069c00364900004949000036060000494900006f
:1006ac00291e00000036000036000000000000008b
:1006bc005636000000000000081400002241000023
:1006cc000014000014140000141400000041000079
:1006dc00221400000802000001510000090600006d
:1006ec0032490000794100003e7e000011110000eb
:1006fc00117e00007f49000049490000363e000091
:10070c0041410000412200007f41000041220000d5
:10071c001c7f000049490000494100007f0900008e
:10072c0009090000013e000041410000497a000027
:10073c007f080000080800007f000000417f0000d7
:10074c004100000020400000413f0000017f0000fc
:10075c0008140000224100007f40000040400000cf
:10076c00407f0000020c0000027f00007f020000ae
:10077c00040800007f3e000041410000413e0000a3
:10078c007f09000009090000063e000041510000ed
:10079c00215e00007f090000192900004646000078
:1007ac004949000049310000010100007f010000af
:1007bc00013f000040400000403f00001f200000af
:1007cc00402000001f3f000040380000403f000068
:1007dc006314000008140000630700000870000098
:1007ec00080700006151000049450000437f0000ec
:1007fc00414100000000000002040000081000004d
:10080c002000000000410000417f000004020000b5
:10081c000102000004400000404000004040000085
:10082c0000010000020400000020000054540000ed
:10083c00547800007f480000444400003838000021
:10084c0044440000442000003844000044480000a8
:10085c007f3800005454000054180000087e00003b
:10086c0009010000020c000052520000523e000030
:10087c007f0800000404000078000000447d0000a4
:10088c004000000020400000443d0000007f0000bc
:10089c001028000044000000004100007f400000d0
:1008ac00007c000004080000047800007c080000b4
:1008bc000404000078380000444400004438000070
:1008cc007c1400001414000008080000141400002c
:1008dc00187c00007c08000004040000084800009c
:1008ec005454000054240000043f00004440000015
:1008fc00203c000040400000207c00001c20000038
:10090c00402000001c3c000040300000403c000037
:10091c004428000010280000440c00005050000037
:10092c00503c000044640000544c000044000000a3
:10093c000836000041000000000000007f000000ad
:10094c000000000041360000080000001804000000
:08095c00081000000c0000006f
:020000040000fa
:100964001600fa006007980071079800020f9800bb
:10097400130f9800445798008e0a90006e0290005e
:100984000482520004f0a7000402ea00140798004d
:100994009e0a90007e0290000482520004f0a70098
:1009a4000402ea0024079800ee0290000e0a900068
:1009b400848f520002003d00140020000100370023
:1009c4000082eb0034079800fe0290001e0a90009b
:1009d400848f520002003d00140020000100370003
:1009e4000082eb00440798009e0290002e029000c3
:1009f400048f520001003700000000004e519000a7
:100a0400fe0090006e00900060030700ee0290006c
:100a14000e0a9000848f520008003a00fe029000f3
:100a24001e0a9000848f520004003a00b400200093
:100a3400040078000080fa00000006001e0278001e
:100a440004024200540798002e0290008402ea0037
:100a54005e029000848f520006003d002e0290003a
:100a64001e0f1200ee0290003e029000048242002b
:100a740064079800de0290001e029000848f5200ea
:100a8400ddff3d001e0290001e0f4200fe0290009a
:100a94004e0290000482420074079800d7ff37008a
:100aa4000a00fa00100798002107980032079800fe
:100ab400034f98003e029000e00f520007003d00f3
:100ac4003e0290000402ea0034079800ae0290004f
:100ad4003e02900004825200240798000002eb00ba
:100ae400040f7800070037002e0290001e02420017
:100af4000e499000840078001e0090002303070034
:100b04001e0fe8003e0290009e027800848f52007f
:100b1400f5ff35000080fa00000006000a00fa0024
:100b2400100798002107980032079800034f980097
:100b34003e029000e00f520007003d003e0290008c
:100b44000402ea00340798009e0290003e029000de
:100b540004825200140798000002eb00040f78008e
:100b6400070037001e0290001e0242000e4990004a
:100b7400ae00900004007800040307001e0fe80094
:100b84003e0290009e027800848f5200f5ff3500eb
:100b94000080fa00000006000a00fa00000f780046
:100ba400110798002207980033079800044f980013
:100bb4008e4990002e0190009e0090001e00780047
:100bc400d6ff07009e0290003e029000048242007d
:100bd4000402e9008e4990002e0190008400780000
:100be4001e007800cdff07008e4990003e01900062
:100bf4009e0090001e007800a9ff07002e029000be
:100c04001e0242000402e9008e4990003e01900059
:100c14009e00900004007800a1ff07000080fa0005
:100c2400000006000e00fa00000f7800110798007b
:100c34002207980033079800440798005507980046
:100c4400464f98004e4a9000be0190002e0190003d
:100c54009e0090001e00780041ff07004e4a90005d
:100c6400de0190004e019000be0090002e00900026
:100c74003bff07004e4a9000de0190004e019000b9
:100c84009e0090001e00780035ff07000080fa00e7
:100c9400000006001400fa0050079800610798004d
:100ca40072079800030f9800245798007e02900062
:100cb400040f78000002eb0014079800fe02900075
:100cc400e4ff2f0084aab9000402e8002407980076
:100cd40014002000340798000002eb004407980039
:100ce400710037000e0a9000cfa2de00360020000b
:100cf40007002000860f5200878f5a0051003e00e3
:100d0400040601003c0037002800370014003700b7
:100d140000003700ee0290001e0290008482420020
:100d24005e0290001e0242002e5190008500780061
:100d340004007800950207006e0290009e024200b3
:100d44005e0390001e029000040243002e519000a6
:100d540085007800040078008c0207003900370011
:100d64006e0290009e0242005e0390001e029000fc
:100d7400040253002e51900085007800040078008e
:100d840082020700ee0290001e029000848242005c
:100d94005e0290001e0252002e51900085007800e1
:100da400040078007902070026003700ee02900064
:100db4001e029000848252005e0290001e025200c5
:100dc4002e51900085007800040078006f0207001f
:100dd4006e0290009e0252005e0390001e0290007c
:100de400040253002e51900085007800040078001e
:100df40066020700130037006e0290009e02520044
:100e04005e0390001e029000040243002e519000e5
:100e140085007800040078005c020700ee02900070
:100e24001e029000848252005e0290001e02420064
:100e34002e519000850078000400780053020700ca
:100e4400000000001e0290000402e800140798004d
:100e5400ce0290003e0290000482420044079800b3
:100e64003e0290000482e800340798004e0290008d
:100e740004024200840278002e02900004824200a0
:100e8400e00f5200080034001e0fe900ce0290006b
:100e94002e02900004824200440798002e02900023
:100ea4000482e800240798001e0290009e02780045
:100eb400848f52008bff3d000080fa000000060082
:100ec4001200fa0050079800610798007207980012
:100ed400035798007e029000040f78000002eb0094
:100ee40014079800fe029000e4ff2f0084aab900c2
:100ef4000402e80024079800140020003407980036
:100f04000002eb004407980061003700ee029000f5
:100f14001e029000848242005e0290001e02420083
:100f24000e51900085007800040078001702070035
:100f34006e0290009e0242005e0390001e0290002a
:100f4400040243000e5190008500780004007800ec
:100f54000e0207006e0290009e0242005e039000a3
:100f64001e029000040253000e5190008500780088
:100f74000400780005020700ee0290001e029000b3
:100f8400848242005e0290001e0252000e519000c4
:100f94008500780004007800fc010700ee02900050
:100fa4001e029000848252005e0290001e025200d3
:100fb4000e5190008500780004007800f3010700ca
:100fc4006e0290009e0252005e0390001e0290008a
:100fd400040253000e51900085007800040078004c
:100fe400ea0107006e0290009e0252005e03900028
:100ff4001e029000040243000e5190008500780008
:1010040004007800e1010700ee0290001e02900047
:10101400848252005e0290001e0242000e51900033
:101024008500780004007800d80107001e029000b3
:101034000402e80014079800ce0290003e029000db
:1010440004824200440798003e0290000482e800b3
:10105400340798004e029000040242008402780093
:101064002e02900004824200e00f52000800340077
:101074001e0fe900ce0290002e029000048242006e
:10108400440798002e0290000482e8002407980088
:101094001e0290009e027800848f52009bff3d0048
:1010a4000080fa00000006000c00fa00000f78002f
:1010b4001107980022079800330798004407980006
:1010c400254f9800ce029000e4ff2f0084aab900b7
:1010d400840278002e029000848242004e02900026
:1010e4001e024200ae499000050178009e00900067
:1010f4000400780089fe0700ce029000e4ff2f0070
:1011040084aab900840278002e029000048342006d
:101114009e0290003e029000048242008402e90094
:101124004e0290001e024200ae4990000601780073
:10113400850078000400780078fe0700ce02900055
:10114400e4ff2f0084aab900840278003e029000d4
:10115400848242001e0390004e0290000402430069
:10116400ae49900005017800840078001e007800e4
:101174004bfe0700ce029000e4ff2f0084aab900c2
:10118400840278003e029000048342009e02900094
:101194004e029000848242002e0290001e02420001
:1011a4000402e900ae499000060178008500780049
:1011b400040078003afe07009e0290004e02900060
:1011c400048342004e0290009e0242002e4a900088
:1011d400130020004e01900086007800050078007e
:1011e400acfe07009e0290004e0290000483420071
:1011f4002e0290009e0242004e0290000482520091
:101204008402e9002e4a90008001eb004e01900018
:1012140086007800050078009efe07009e0290007c
:101224003e029000848242004e02900004825200ea
:101234000403e9002e0290009e0242004e02900038
:10124400048252008402e9002e4a900033002000f8
:101254004e01900086007800050078008dfe07009e
:101264009e0290003e029000848242004e02900052
:10127400048252000403e9004e0290009e024200e0
:101284002e4a9000230020004e0190008600780032
:10129400050078007ffe07000080fa0000000600c9
:1012a4000c00fa00100798002107980032079800f4
:1012b40043079800244f98001e029000040f780002
:1012c40006003700ae4990004e019000ae00900039
:1012d4001e007800f2fd07001e0fe800be02900019
:1012e4001e029000048242009e0f5200f5ff3c0053
:1012f4000080fa00000006001600fa00500798006b
:101304006107980072079800030f9800140f980063
:10131400455798007e029000040f78000002eb000d
:1013240014079800fe029000e4ff2f0084aab9007d
:101334000402e800240798001400200034079800f1
:101344000002eb00440798005b0037001e0a90007f
:10135400e00f52001e003a001e02900004024200f8
:101364008402e8000e0a900004834200ee0290001a
:101374001e029000848252005e0290001e0242000f
:10138400ce519000060178008500780004007800b2
:10139400c3fd07001e027800040242008402e80034
:1013a4000e0a9000048342006e0290009e025200d6
:1013b400de0390001e02900004824300ce51900090
:1013c400060178008500780004007800b4fd070069
:1013d4001e0a9000e10f52001e003a001e02900007
:1013e400040242008402e8000e0a900004834200d2
:1013f400ee0290001e029000848252005e02900071
:101404001e025200ce51900006017800850078003b
:1014140004007800a2fd07001e02780004024200c6
:101424008402e8000e0a9000048342006e029000d9
:101434009e025200de0390001e02900004825300bc
:10144400ce519000060178008500780004007800f1
:1014540093fd07001e0290000402e80014079800a0
:10146400ce0290003e02900004824200440798009d
:101474003e0290000482e800340798004e02900077
:1014840004024200840278002e029000048242008a
:10149400e00f5200080034001e0fe900ce02900055
:1014a4002e02900004824200440798002e0290000d
:1014b4000482e800240798001e0290009e0278002f
:1014c400848f5200a1ff3d000080fa000000060056
:1014d4000e00fa00100798002107980032079800c0
:1014e4004307980054079800454f98002e02900037
:1014f400040f78000f003700de029000e4ff2f0095
:1015040084aab900840278003e02900084824200da
:101514001e0390005e02900004024300ce49900036
:10152400050178009e007800040078007bfd070028
:101534001e0fe800ce0290002e02900004824200aa
:101544009e0f5200ecff3c00de029000e4ff2f00ef
:1015540084aab900840278004e02900004824200fa
:101564000400e900ae0290005e0290008483420011
:101574009e0290003e029000848242005e0290002f
:10158400048252000403e900ce4a90000002eb00fa
:10159400800178005e0190008700780006007800e2
:1015a40055ff0700de029000e4ff2f0084aab90073
:1015b400840278004e029000048242000400e90094
:1015c400ae0290005e029000848342009e0290006e
:1015d4005e02900004834200ce4a90001400200072
:1015e400800178005e019000870078000600780092
:1015f40041ff07000080fa00000006000800fa001e
:10160400000f78001107980022079800634798009c
:101614002e029000040242008402e8001e0390009f
:101624002e02900004025300ee4190000501780060
:10163400840078001e00780019fd0700ee42900037
:101644000002eb008001eb002e0190009e00900050
:101654001e00780028ff0700ee42900014002000ce
:101664008001eb002e0190009e0090001e00780087
:1016740021ff07000080fa00000006001000fa00b5
:101684003007980041079800224f9800630798009c
:10169400644f98002e4a9000ff4f52000400360019
:1016a400ae4a9000e4c7b30084cf52000200360073
:1016b400b400200032003700ae4a900004ceb300dc
:1016c40004c24200244f98003e029000040f7800a8
:1016d4002600370014c0b300444798004e0390001e
:1016e400160798001b0037002e4a90008482fb00e6
:1016f4003e0290001e021200e52bb900860278001b
:1017040004824200652d280004824200944278003d
:101714004e42900004c26200e04f520002003200c8
:101724006e4a9000010037000042eb00044178004b
:101734009e0090001e007800140007001e02900016
:101744000402e800140798004e429000044242004c
:10175400444798004e029000e80242001e029000a6
:10176400848f5200e0ff3c001e0fe8003e02900010
:10177400650242009e0f5200d6ff3c00a4002000e8
:10178400040078000080fa00000006000600fa0059
:10179400000f780011079800424798001e02780055
:1017a400e00f52000b003500f40720009e02780081
:1017b400848f520007003c001e029000e00f52008c
:1017c400040035009e029000f4032000848f520030
:1017d4000200340024002000710037004e429000c3
:1017e4000482fb00e10f520005003200e20f5200b8
:1017f40038003200e00f52001b0032004f00370067
:101804009e02900084002000110009008402d80088
:10181400000278001508200085a3b900860278002c
:101824001e83420005002100850243009542780092
:10183400054378009e029000e782620017002000b2
:10184400853add0085427800854273001608200041
:1018540086a2b9001e0342000400210004024300d2
:10186400054a7800350037009e029000840020006d
:10187400110009008402d800000278001508200035
:1018840085a3b900860278001e834200050021006a
:101894008502430095427800054378009e0290003b
:1018a400e782620017002000853add008542780057
:1018b40085c2ea00854263001608200086a2b900aa
:1018c4001e0342000400210004024300054a78007c
:1018d4001a0037009e0290008400200011000900c5
:1018e4008402d800000278001508200085a3b900fe
:1018f400860278001e834200050021008502430011
:1019040095427800054378009e029000e7826200c9
:1019140017002000853add008542780085426b007f
:101924001608200086a2b9001e034200040021000c
:1019340004024300054a7800000000009e02900063
:1019440084002000110009008402d80000027800fd
:101954009e00780004007800140007009e029000a6
:1019640084002000110009008402d80000027800dd
:10197400840278001408200084aab9009e02420060
:101984000400210004824200144278000482fb0017
:101994001100200004007800320007001400200029
:1019a400040078000080fa00000006000400fa0039
:1019b400000f7800110798009e029000f4072000a1
:1019c400848f520009003c001e029000e00f520078
:1019d400060035001e027800e70f520003003c00a9
:1019e4001e027800e00f520002003d002400200097
:1019f400190037001e02780054a488001e029000cb
:101a040064a488008000eb00100220001500070089
:101a14001e0290008000eb00040078001100070013
:101a24008000eb00f00720000e0007008000eb00b0
:101a3400200220000b0007001e0278008000eb004b
:101a440004007800070007008000eb00700020000d
:101a54000400070014002000040078000080fa004d
:101a6400000006000400fa00000f78001107980037
:101a7400040ea900046ea9001e029000044278001e
:101a8400614262000482fb00610262004222dd00c6
:101a940026708000b5ff2f008502630005027200e6
:101aa40024708800048ea8001e027800050020001f
:101ab4002680200086abb900e021b90082037800bb
:101ac400070343008402780024802000042ab8001d
:101ad4000503430086027800061122002700200037
:101ae40084007800850278000600780007027800f8
:101af400008360000482620005002000c022dd0033
:101b0400040020000400be006132b800040070002c
:101b1400858070001e02780005002000060228005f
:101b240086abb900e021b9008203780007034300c3
:101b34008402780004022800042ab8000503430044
:101b4400860278000644280087002000840178007b
:101b5400850278000601780007027800028161009e
:101b64000482620005002000c022dd000400200081
:101b74000403be006112b80004037300858373007c
:101b840006027000878270001610200086abb90030
:101b9400e121b9008203780007034300840278003e
:101ba40014102000042ab8000503430086027800bc
:101bb400402ade00040f78001e027800c822dd00ef
:101bc40096708000f40f2000040263000502720086
:101bd400947088000000000000000000048ea9003a
:101be400000000000080fa00000006000400fa0073
:101bf4008000eb000000eb006cff07000002eb002c
:101c040014079800160037000002eb00040f780058
:101c14000c003700110020000000eb0091ff0700ca
:101c24009e0290001408200084aab9009e0242007b
:101c340004002100048242008042eb00054a78003f
:101c44001e0fe800f40720009e027800848f5200e3
:101c5400f0ff34001e0290000402e800140798000c
:101c64001e029000e70f5200e7ff34008000eb00f3
:101c74000000eb004dff07000080fa0000000600a2
:101c84000200fa0004022000343a8800243a80005a
:101c94000460a0000470a100243a8800253a800062
:101ca40004fe2f0004826200243a880016002000fb
:101cb40084072000a509200037742000844b780095
:101cc400854b7800864b7800143a80000403780032
:101cd4000600a0006404200075052000277420007d
:101ce400844b7800854b7800864b78000000000018
:101cf400153a800004002700848262000400210059
:101d0400848f5200faff3a0000000000153a800068
:101d14000402200004826200e00f5200fbff320044
:101d2400c4002000f4708800f40720008470880048
:101d34000002eb00a47088000002eb0074708800bd
:101d44000002eb00047088000002eb00247088009d
:101d5400042ea80003003700000000000100370033
:101d6400000000009470800062026200e00f5200e4
:101d7400f9ff3a00802d2d003100200048000700b3
:101d84009470800062026200e00f5200f4ff3a0097
:101d9400042ea900d0072000010020004000070005
:101da400042ea800d0072000010020003c000700fa
:101db40014eea800705e2400010320003800070020
:101dc4008000eb00f00a200026ff07008000eb00f3
:101dd4000002200023ff07008000eb000000eb005e
:101de40020ff07000002eb00040f78000400370016
:101df400110020000000eb001aff07001e0fe8008e
:101e0400f4ff21009e027800848f5200f8ff340012
:101e14008000eb000000eb00e4fe070012c0b300fa
:101e240011002000f003200058fe070014c0b30086
:101e340013002000c2c4b30031002000f0032000ce
:101e44000efe070003003700000000000100370009
:101e5400000000009470800061026200e00f5200f4
:101e6400f9ff3a00802d2d00310020000c000700fe
:101e74009470800061026200e00f5200f4ff3a00a7
:101e84008000eb00e00a2000f6fe070014eea90033
:101e9400c0b82c00f102200001000700b1ff370098
:020000040000fa
:101ea400f03fb1000180b10006003500ee030900e7
:101eb40000000000403fb1000180b100fbff3d0085
:101ec4001000b000203fb00002003500008009007f
:081ed400000000000000060000
:020000040000fa
:101edc00001000008e0400008000000000000000d4
:020000040000fa
:02000004000af0
:04afe000cfff00009f
:020000040000fa
:02000004000af0
:04afe400dfff00008b
:020000040000fa
:02000004000af0
:04afe8007fff0000e7
:020000040000fa
:02000004000af0
:04afec005bff000007
:020000040000fa
:02000004000af0
:04aff00078ff0000e6
:00000001FF
