:020000040000fa
:080000000002040000000000f2
:020000040000fa
:10000800d2020000d2020000d2020000d202000098
:10001800d2020000d2020000d2020000d202000088
:10002800d2020000d2020000d2020000d202000078
:10003800d2020000d2020000d2020000d202000068
:020000040000fa
:100400004f0021000eff2c000e01880000000000ac
:10041000000020000000e000020032000001200087
:10042000200288000c000700809a230001002000b1
:100430000f000700000020000000e0000200320072
:100440000000020000000000f4370200000000007d
:100450000040da000000fe00c01d22000000e000a5
:1004600002003200002020009001880000000600f9
:10047000a1028800800078000000eb001a0037001d
:10048000e280400054a0b4009101ba00e280400034
:1004900054a0b4009102ba00e280400054a0b4001d
:1004a0000002eb00472bde00f507b200a601880032
:1004b000602ce10008003a000049eb000201e8006e
:1004c000020039003420ec0002f0a0008301e900b2
:1004d000f9ff3e00040037006128e100010032000e
:1004e0000082eb00040007001101ba000200e000e6
:1004f000e3ff3a000000060004d0a300e20f490029
:100500001c003900810278003549ba000201e80078
:10051000020039003420ec0002f0a0008301e90061
:100520000f0032002549ba000201e800020039003c
:100530003420ec0002f0a0008301e9000800320042
:100540000400e0000600320015c9ba000201e8000c
:10055000020039003420ec0002f0a0008301e90021
:100560008180e80054a0b4000300e000e2ff3a00fc
:10057000000006009102ba00055978008301e900e5
:10058000f7ff3200c82ade00055978008301e90030
:10059000f3ff32000400e000f1ff320011d9ba008d
:1005a000eeff37000040da000000fe0003f0a2007a
:1005b000889fbe008a9fbe008c1f7800170107002d
:1005c0001e0133006450e1004f0032006420e1005e
:1005d0005200320003826c0007003b000905d00086
:1005e0000306d000820f54000c065d0002003900a3
:1005f00002003200890178000306780085825500e8
:1006000004003d000003fd008103fd008502ea00b7
:100610008b854200840f720002003b0060001000d6
:10062000e08018006011b8000005eb007a28e100b6
:100630000a00390006007800c75ddd00f707b20048
:10064000878075002d003700828171000a017800d3
:10065000610560008180d1000080d3008502e9003f
:10066000f9ff3b00060440008784480002003b007d
:1006700060041400e0841c000988a3000700320015
:100680008a81710082817100610164008904d10056
:100690000884d3008b05e800170037000978a30011
:1006a00013003a000b00e000130034008b05e90052
:1006b0000804440089844c000a4474000978a300ab
:1006c0000d003a000b00e000070034008b05e90044
:1006d0000804440089844c0001003a000b0020000b
:1006e0000978a300f7ff32000001eb000200370099
:1006f000828171000a0178008d0007000cf0a700cc
:1007000001f0a000d60037006420e10002003a00aa
:10071000838f6c00d60033000801be000200be00cb
:10072000cf003700889fbe008a9fbe008c1f7800d4
:10073000ba000700c100330003866c006450e1007a
:100740002e0032006420e100330032006150e100ed
:100750002f0032006120e100310032008585550014
:10076000eb07b00009002000080420000500370056
:100770000804440089844c000a0031000603430049
:1007800087834b000001530081815b00f8ff330039
:100790000203be000800a0000804440089844c0045
:1007a000f6ff3900c639dd00830173000100320015
:1007b000130020008904d1000884d3000998a30005
:1007c000050032000800a7000300a0008904d10042
:1007d0000884d3008b05e8008904d1000884d30085
:1007e0000001eb000281d2005100070001f0a100de
:1007f0000cf0a70001f0a000990037006420e10090
:100800009b0032000801be000200be00f7ff370067
:100810006120e100960032006000b800f3ff37006d
:100820000000200001f82700f0ff37000001be00a3
:10083000650007000470a70003f0a1006509b1007e
:10084000160032000d0035006828e1000600350072
:10085000f0ff2f00f1ff27000300e00013003b0032
:1008600001002800000005000000400081804800d1
:100870008502e900fcff3a0008003700f88f4200cb
:1008800002003c008000eb00000005008100d10068
:100890000080d3008502e800fcff3a000300e0007e
:1008a00002003b0060001000e0801800000006001d
:1008b0000001be00440007000470a70003f0a1007f
:1008c00003f8a30013003a006509b10010003200dc
:1008d000090035006928e100020035000100280008
:1008e0000000050000004000818048008502e9000a
:1008f000fcff3a0000000600f88f420005003500ba
:100900008100d1000080d3008502e800fcff3a009e
:10091000000006008000eb00000005004f89de00ab
:1009200082017800890037006011b8009700370015
:1009300081002000618055000b003d000b0020006d
:1009400061fe2f000100e1001d0034008281710072
:10095000610164008904d1000884d3000000e8002c
:10096000faff3a007100200061006400030070008b
:10097000020060000900320061044400e0844c0081
:100980000988a500050032008b05e8006808e10031
:1009900002003a008904d1000884d300f20f20003d
:1009a0000258e10005003d00c75ddd00f907b20017
:1009b0008980750008007800000006000bf8270009
:1009c0008b00780000000500c70ade00f107b200c6
:1009d000f50fb20008003200e1cf42000200320001
:1009e0000170a00024000500810f7000010032009a
:1009f0000408050044000500810f700002003a0061
:100a0000140005008502e9000000400081c0480094
:100a1000fcff3b000170a000240005000004be00a4
:100a2000e9ff07000003be000405be000200be008f
:100a3000e5ff0700844f7500000006000200be00bd
:100a40006450e100050036006420e1000200360039
:100a50000968a30001003a000800be000160a00080
:100a60004f0678004f05be004f04be000000060090
:100a7000f0ff2f00f1ff2700f9ff3700889fbe002d
:100a80008a9fbe008c1f7800e4ff0700ebff330055
:100a900003866c006450e100240032006420e10011
:100aa000270032006150e100220032006120e100a5
:100ab000210032008b854200eb07b1000134b80001
:100ac000003ab8000804420089844a00013ab8009c
:100ad0000030b8008880400009014a00040033005b
:100ae0000000400081804800020149008b05e900b8
:100af000c909dd00830170000100320013002000ed
:100b0000c814de004814dd004709de001200b20000
:100b1000c808de000884700085ff070001f0a1000e
:100b20000cf0a70001f0a000cdff37006120e1002c
:100b3000cfff32000801be000200be00f7ff370001
:100b40006150e100fcff3a00c9ff3700881f7800c0
:100b5000030478000300e00007003d00600010007f
:100b6000e080180060011900e081190002003b00dc
:100b700001f02d00030037000400070008f0a70073
:100b800001f0a0004f04780000000600889fbe001e
:100b90008a9fbe000082700004027100048271000e
:100ba000260032000004be000200be006011b80042
:100bb0006b092000950220000182cf000a00390055
:100bc0000541b1000082cf00070039000541b100a6
:100bd0000982cf00040039000541b1000882cf002e
:100be000010039000541b1000542520012003200f7
:100bf0000a003b0082817100610164008100d10024
:100c00000080d3008984d3000884d3008b05e800da
:100c10000442e800f7ff3a000700370008044400e8
:100c200089844c0000004800818048008b05e90061
:100c30000442e900f9ff3a003dff07004f05be00fe
:080c40004f04be000000060095
:020000040000fa
:100c48002b0900004c1100006d1100004c11000030
:100c58000b090000ea080000ca080000ca080000e2
:100c6800a8000000c90000000b0900002c110000ba
:100c78000a090000a7000000c7080000a808000033
:100c8800a70000000b0900004d1900000b09000027
:100c98008700000068000000cb100000aa100000c8
:100ca8008600000085000000e8000000ea0000005f
:100cb800eb000000eb0000000b090000aa00000098
:100cc800eb000000eb0000002d0900002d110000d2
:100cd8002c110000ea080000e90800008700000065
:100ce80066000000c80000000a0900002b1100007f
:100cf800e9080000870000006500000044000000cb
:100d08004400000065000000a7000000c8000000c3
:100d18000909000009090000090900000b11000079
:100d2800ab080000680800004400000083000000d1
:100d3800c5000000c8000000a9080000a9100000b4
:100d48002b0900004c1100006d1100004c1100002f
:100d58000b090000ea080000ea080000ca080000c1
:100d6800c9080000c90800000b0900002c11000088
:100d78000a090000a7000000c8080000c808000011
:100d8800c7000000ea0800002d1100002b11000028
:100d9800c8000000a8000000eb100000aa0800002e
:100da80087000000e608000007090000c8080000e6
:100db8000909000008110000e7080000c608000043
:100dc800a5000000e7080000281100000811000035
:100dd80008110000291100002a110000e900000094
:100de800a8000000a90000002b0900000a09000063
:100df80009110000870000004400000044000000c2
:100e08006600000085000000a6000000e808000059
:100e18000b0900002b0900002a1100002b1100000b
:100e2800ea100000a9080000650000008400000026
:100e380085000000870000006700000067080000c8
:100e48002b0900004c1100006d1100004c1100002e
:100e58002b0900000a090000eb080000ea0800005e
:100e6800c9080000c90800000b0900002b11000088
:100e78000a090000a7000000c8080000c808000010
:100e8800c60000000a0900004d1900002b110000df
:100e9800e7000000c70000000b090000eb08000095
:100ea800a80000000611000066210000a829000023
:100eb800e9390000aa5200002b6300008b6b000088
:100ec8006b730000ac7b0000ee8300002c63000015
:100ed8004a42000026190000e7100000c700000081
:100ee80087000000e9080000e90800002a11000056
:100ef800e8080000c808000086000000450000005f
:100f08006700000086000000c6080000090900000c
:100f18002c1100004c0900004b1100004b1100007f
:100f28002b190000ea080000870000008500000077
:100f38008600000066000000460000006500000012
:100f48002b0900004c1100006d1100004c1100002d
:100f58002b0900000b0900000b110000ea1000002b
:100f6800c9080000c90800000b0900002b11000087
:100f78000a090000a7000000c8080000c80800000f
:100f8800c60000000a1100006e1900004b11000095
:100f9800e7000000e70000002a0900000b09000034
:100fa8002811000086210000e63900006852000080
:100fb800a9620000ab7b00000a8c0000098c0000cd
:100fc8002a9400008ca400006d9c000031b500003c
:100fd80093b5000033ad00000f840000aa52000052
:100fe800c831000084080000e71800000919000053
:100ff800091100008700000066000000860000005c
:1010080086000000a7000000e90800000b1100009e
:101018004d1100006c0900006b1100004b1100001d
:101028004c1900000b090000c800000085000000f2
:1010380086000000660000006500000085000000d2
:101048002b1100004c1100008d1900006d110000db
:101058002b1100000b0900000b110000ea10000022
:10106800c9080000e90800000b0900004c11000045
:101078000a090000c8000000c8080000c8080000ed
:10108800c70800000a1100006d1900004b1100008c
:10109800e7000000c600000029090000091100004f
:1010a8002619000027420000264a00004652000088
:1010b800e86a0000ea930000c88b0000e89300008b
:1010c800e89300002a9c00002b9c00000b94000071
:1010d8008da400000fad0000d2c50000f2cd0000c5
:1010e80051b50000b1a40000cc6200000721000047
:1010f800e8180000c708000087000000860000000c
:10110800a6000000c80000000b1100004d110000ef
:101118006c1100006b0900006b1100004d190000f4
:101128004e1900004c110000080100008500000065
:1011380065000000660000006500000084000000f3
:101148002b1100006c1100008d1900006d110000ba
:101158004b1100002b0900000b110000ea080000e9
:10116800c9080000c90800000b0900004c11000064
:101178002a090000c8000000c8080000a8080000ec
:10118800a8080000ea0800006c1900006b110000b4
:10119800e7000000a600000049190000a829000087
:1011a8000742000066520000255200002652000047
:1011b80086620000287b000027830000888b0000df
:1011c8004783000068830000a98b0000ea930000b1
:1011d800ea9300008ca40000abac00004ebd0000f8
:1011e800d1cd000050bd0000f0ac0000f2a400001a
:1011f8004e6b0000e931000064000000640000004c
:1012080087000000c90000000c0900004c11000014
:101218006b1100004b0900002c1100002e1100007a
:101228006e1900006b11000008090000860000001c
:10123800660000006600000066000000a5000000cf
:101248002b1100006c1100008d1900006d110000b9
:101258004b1100002b1100000b110000ca08000000
:10126800a9000000c90000000b0900002c110000b3
:101278002a090000c8000000c8080000a8080000eb
:10128800a8000000ea0800006d1900004c110000d9
:10129800c8000000a60800004729000085390000a2
:1012a8008339000021310000c0280000013100000e
:1012b80082410000245a0000656a0000098300008a
:1012c800287b00004883000068830000477b0000fb
:1012d80088830000ea9300002b9c00006ca40000a7
:1012e800eeb400002fbd0000ceac00008ea40000bc
:1012f80010ad000032ad0000ad7300008110000099
:1013080086080000c90800002b0900006c090000cd
:101318006b0900002c1100000d1100002e110000b7
:101328006d1900008b1900000809000086000000f4
:10133800860000008600000086000000a70000006c
:101348002b0900004c1100008d1900006d110000e0
:101358004c1100002b1100000b110000ea080000de
:10136800c9080000c90000000b0900004c1100006a
:101378002b110000c8080000e8080000c808000099
:10138800a7000000eb0800004e1100002c1100001f
:101398000911000006190000242900008028000017
:1013a800a0300000a2490000455a0000875a0000fa
:1013b800c76200006562000005620000a87a0000ac
:1013c800077b000069830000077b0000898b000011
:1013d800898b0000aa9300002ca400008eb40000a2
:1013e8006dac00006cac0000adb40000acac00000b
:1013f8006ca400004c9c000010b50000cfac0000ad
:10140800c4180000e71000004c0900008d09000016
:101418008d1100006d1100004e1100004e110000ea
:101428008d1100008b1900000811000087000000d2
:101438008600000086000000870000008800000089
:101448002b0900006c1100008d1900006d110000bf
:101458004c1100002b110000eb080000ea08000006
:10146800c9080000c9080000ea0800004c11000083
:101478002a090000c8080000c8080000c8080000c1
:10148800c7000000eb0800004e1900004c190000ce
:10149800c71000008110000001310000055a00004b
:1014a800666a0000087b000028730000497b000082
:1014b800897b000089830000e77a000087720000ba
:1014c8006983000049830000288300002983000005
:1014d8006a9300008a9300008a9b0000a99b000081
:1014e8006cb400008cb400000aa40000c99b000082
:1014f8002ba40000ea9b00000b9c0000ea9b000064
:101508006d9c0000662900002b1100008f1100005f
:10151800ae110000ce1900008d190000ae190000b0
:10152800ae1900008c19000009110000a700000086
:101538008600000087000000870000008800000087
:101548002b0900006c1100008e1900008d19000095
:101558006c1100002b1100000b110000ea080000bc
:10156800a9000000c90800000b0900004c11000088
:101578002b110000e8080000c8080000c808000097
:10158800c70000000b0900002d1900004b210000c6
:10159800e5180000c54100004139000083490000fa
:1015a80046620000e872000008730000ea8b000041
:1015b800687b0000077b0000488b00000883000060
:1015c80007830000088b0000088b0000098b0000cf
:1015d800e88a0000499b0000aaa30000caa30000f3
:1015e800a89b0000e9a300004bac0000eaa30000a0
:1015f800eaa30000eaa30000699b000049930000e9
:10160800a89300006f9c00000c3a00000c11000029
:10161800af190000ae110000cd190000ad1900008f
:10162800ae190000ae1900004b110000c800000000
:10163800a70000008700000088000000a800000044
:101648002b0900006c110000ae1900008d19000074
:101658006c1100002b1100000b110000ca080000db
:10166800a9000000c90800000b0900006c11000067
:101678004b110000e8080000c8080000c808000076
:10168800e9000000e90000006b2100006829000063
:101698006431000041390000e3490000a76a0000f6
:1016a80086620000c87200006a830000698b00002f
:1016b8008a930000aa9300006993000069930000d0
:1016c800089b0000289b000069a30000089b0000fd
:1016d80028a30000c792000069a30000ebb3000034
:1016e8000bac0000caa300000aac00000aa400006a
:1016f800a89b000089a30000699b000049a3000083
:1017080068930000a99300004f9400000b3a000072
:10171800ae190000af110000cf190000ce1900006b
:10172800ce190000ce1900006c1100000a09000053
:10173800e9080000a808000088000000a8080000c8
:101748002b1100006d190000ae1900008d19000062
:101758006c1100004b1100000b110000ea0800009a
:10176800a9000000c90800000b0900006c11000066
:101778004b110000e8080000c8080000a808000095
:10178800890000000909000046210000e641000028
:10179800623900008341000004520000a762000083
:1017a800497b0000ab8b0000cb9300008b9b0000b3
:1017b8008b9b00008b9b0000ecab0000ecab0000a7
:1017c8002dc400000cc40000a9b30000a9bb000090
:1017d80088b3000028ab0000c79a000029a30000c6
:1017e800cbb300008dc400002bb4000009ac00008e
:1017f800e9ab000088a3000068a300006aa300000a
:101808006a9b0000268b0000c88b0000ec7b000060
:10181800ab290000d0210000d0190000f021000001
:10182800ee190000ce1900008c1100004b090000d1
:101838000a110000c910000088080000c80800004c
:101848002b1100006d190000ae1900008d19000061
:101858006c1100004b1100000b110000ea08000099
:10186800c9080000c90800000b0900004c1100005d
:101878004b110000e8080000c8080000a808000094
:10188800c9080000e6100000843100004131000062
:1018980082410000e5510000a762000029730000a2
:1018a800aa8300008ea40000cc9b0000aca300001b
:1018b8008cab0000edb300002ebc00008fc400000c
:1018c8006dc400008ecc00004ccc00002bcc000076
:1018d800a9bb000069bb000008b3000029b30000e1
:1018e80049b30000aabb00002bc400002bbc0000b9
:1018f800c9ab0000c9ab0000889b0000899b0000b1
:101908006a9b000047930000c79b0000a98b00005a
:101918002c630000ed290000af190000d019000069
:10192800f0190000ee190000ac1100006b11000066
:101938002b190000ca100000a8080000a70000002a
:101948004b1100008d190000ae1900008d19000020
:101958006c1100004b1100000b110000ea08000098
:10196800c9080000c90800000b0900004c1100005c
:101978002b110000e8080000c8080000c808000093
:10198800a6100000e418000042310000c24900001f
:1019980065620000c87200002a7b00008b8300008b
:1019a800aea40000afac00008b9b0000edab0000c4
:1019b8002ebc00004fc400008fc400006fbc0000a4
:1019c8008ebc00004db400008dc400002cc4000083
:1019d8000cc40000aac30000cacb000069c3000001
:1019e80049c3000049bb000028b30000aabb00009f
:1019f800eabb0000eaab0000e9ab0000a89b0000ce
:101a0800c9a30000889b0000c9a3000088930000b8
:101a1800eb8b00008a4a0000cd290000d12100008c
:101a2800f1210000ef190000ac1100006b1100005b
:101a38002b110000ea080000a9000000a80000001f
:101a48004b1100006d190000ae1900008d1900003f
:101a58006c1100002b1100000b110000ea080000b7
:101a6800c9080000e90800000b0900004c1100003b
:101a78002b110000e8080000c8080000c808000092
:101a8800a218000084390000c44900006662000002
:101a980087720000c87200004a830000ed930000be
:101aa80053cd00008b9300002db400008ec40000bd
:101ab8002cbc00004ebc00008fc400008ebc00008f
:101ac8006ebc00008ebc0000cec40000aecc00008e
:101ad8002bc400000bc40000ebcb0000ebcb0000d4
:101ae800ecd3000028bb000069bb000028b300004d
:101af80068b300002bc40000c9ab0000679b00005e
:101b0800e89b0000caa30000699b00002ab40000fb
:101b180049ac0000cb830000ec310000b019000094
:101b2800f1190000ef2100008d1900004c11000090
:101b38004c1100000a090000c9000000a9000000bb
:101b48002b1100006d190000ae1900008d1900005e
:101b58006c1100002b1100000b110000ea080000b6
:101b6800c9080000e90800000b0900004c1100003a
:101b78004b110000e8080000c8080000c808000071
:101b880082390000e449000005520000a8720000f4
:101b9800c87a0000298300006a8b00006fac00003f
:101ba8004b8b00008b9300004db40000adc40000c7
:101bb8006cbc00008dc400006dbc00006db400005a
:101bc8004ebc0000f0cc0000cec400008cbc00006d
:101bd800cccc0000cdcc00004dc400002dcc0000c2
:101be8000ed400000dd400006ac3000048b3000002
:101bf80067b3000006a3000088b3000088b30000a4
:101c0800c89300002cac00004893000029b40000e1
:101c180048b40000cb8b0000716b0000cf2100009e
:101c2800ef190000ee2100008e2100002e1900009f
:101c38004c1100002a010000e9000000c900000062
:101c48000d1100004d1900008c210000ab19000097
:101c58008b0900002b090000cb100000c910000000
:101c6800c7080000e80800000b0900006d1100001b
:101c78008c11000007010000e5100000e6280000b4
:101c88008341000005520000a6620000866a000039
:101c9800a7720000e88200004a9b0000878a0000c3
:101ca8004aa300002dbc00004ebc00006ebc000022
:101cb8004db400006dbc00006ebc00004db40000c7
:101cc8000bac0000889b0000847a0000268b000083
:101cd800a8a30000c9ab0000ced400006dcc000062
:101ce8000dcc00004dd40000ebcb00008ac30000ef
:101cf80048bb000069c300008ac3000086a2000038
:101d0800a8aa000048ab00006ab40000a69300002f
:101d18006ab40000c7a300002ca400004a4a0000cf
:101d2800cf210000f2190000cf1100008c11000033
:101d38004b190000eb100000ca080000c8000000a2
:101d48000c1100004c1900006c1900008c190000df
:101d58006c0900002b090000ea080000c90800000f
:101d6800a9080000c90800002a1100006c11000031
:101d78004b090000091100008418000065490000a3
:101d8800255a0000a76a0000666a0000866a0000fb
:101d9800a77a0000877a0000457a0000e89a0000d8
:101da800ccb300000dbc00002dbc00004db40000f9
:101db8002db400000cb400002cb40000ebab000004
:101dc800cbb30000cbbb0000ebc3000008a30000ae
:101dd800448a0000658a000028a300006dcc00003a
:101de8006ecc00002dcc0000ebcb0000cacb00006d
:101df800cacb000048bb000007ab000007ab0000df
:101e0800e4910000859a000026930000c89b00001a
:101e180009ac000009ac00002ca40000308c0000c4
:101e2800cc29000010220000ef1900008c190000d6
:101e38002b1100000b110000ca080000c8000000a8
:101e48002b1100004c1100006c1900006e110000ed
:101e58004d1100002b11000009090000c900000005
:101e6800aa000000c9080000091100006b19000051
:101e78004c110000a8100000a8510000257a0000ad
:101e880063590000c56100004672000066720000d8
:101e980066720000a78200006aa300000dbc000063
:101ea800ecbb0000ecbb00000cbc00000db4000053
:101eb8002cb400008aa3000049a30000aaab0000cc
:101ec8006cbb0000889a0000a9a200006bbb000050
:101ed8002ecc000066920000668a000049a300002c
:101ee8002dc400002cc400006dd4000089bb000084
:101ef8008ac30000aac3000048bb0000e6aa00008d
:101f0800a6b20000e389000023820000a582000039
:101f180006930000e9ab0000aa9b000032b5000060
:101f2800ec5a0000aa2100000d2a0000cd21000073
:101f38004c1100000b090000c9000000c900000096
:101f48002b0900006c1100008d1100006e110000bb
:101f58004e1100002b11000009090000e9000000e3
:101f6800ca000000ea080000e90800006a19000039
:101f78002a110000e82800004d9300004492000058
:101f88008469000002590000a46100000572000085
:101f9800a88200008aa30000ecb300000dbc00007a
:101fa800edbb0000ccb30000ccb30000ccb3000004
:101fb8000cb400000cbc000049a30000868a000095
:101fc800e3600000c67900004461000084690000f5
:101fd800a88a00002dbc0000668a0000c79a00008d
:101fe8008abb00002cd40000aac300000ccc00005f
:101ff800aac30000aacb00000bd4000069c30000ec
:10200800e6b20000249a0000048a0000037a000067
:10201800647a0000078b0000699300006dac000033
:1020280031b50000eb5a0000eb2900008d190000c3
:102038004c1100000b090000e9000000c900000075
:102048002b0900008c110000ad1900008e1900004a
:102058006d1900002b1100000a090000e9000000ba
:10206800c9000000ea0800000b1100004b1900002d
:1020780008190000ed720000acab0000a7aa000030
:102088000fcc0000ea9a0000a99200004b9b0000c8
:1020980009930000aba300002dbc0000abb3000007
:1020a800ccb300002dc400002dbc00000cbc000007
:1020b8004dbc00008ecc00002cbc00002dc40000dc
:1020c800f2cc000033d500008d9b00000018000002
:1020d800c0380000467a00008ab30000a2810000e0
:1020e80008b30000aac30000ebcb0000ebc300005c
:1020f8002dd40000cbcb0000ebdb0000aad30000fe
:1021080047bb0000a5aa0000e3890000c3790000ce
:1021180004720000046a00008672000068930000e0
:102128000a9c0000ec8300002b3a0000ad2100005f
:102138002c110000ea000000c8000000c9000000df
:102148002b0900006d110000ad190000ad19000049
:102158006b1100002b090000ea080000c908000004
:10216800a8080000ca080000ec1000002c190000a4
:10217800683100002fac00006bab00000dcc0000f4
:1021880071dc0000eec30000acb300002a9b000025
:102198004a9b0000ecab00002db400000dbc000011
:1021a8000dbc0000ccb300002dbc0000cfd4000053
:1021b800afcc00006ecc00002cbc00002dc4000089
:1021c8008fbc0000b0bc000073d50000f1c4000053
:1021d800a8820000e57100006aab0000e8a20000d8
:1021e80024920000a6a2000029b300004dd40000ec
:1021f8006dd400000ccc00004cd40000eacb0000e9
:10220800a9bb000069bb0000e3890000458a000003
:10221800e469000087720000e46100006472000055
:10222800068300008a830000cc5200008c21000045
:102238004c1100000b090000c9000000a8000000b4
:102248002b0900006d110000ae210000ac19000040
:102258006a1100002a090000e9000000a80800002f
:1022680088080000ca100000ec0800002b190000c4
:10227800673900000eac0000abb30000b0d400001a
:10228800cec30000847100004ba30000acab00007b
:10229800aba300002cb400004dbc00002dbc000016
:1022a800ccb30000ccb300000cbc00006ec400002e
:1022b800f0d40000cfd400004dc400006dc400006d
:1022c800a9ab00000bb40000cbb30000f0dc0000a9
:1022d80012e500008bb30000c4790000268a0000d4
:1022e800abbb0000abbb00004dd40000abc300008b
:1022f80008ab0000cabb00008ccc000029bc000061
:10230800c9bb00002bc4000047ab000024820000ba
:10231800056a0000466a0000e97a0000e4590000f6
:10232800c351000005520000cc520000ac29000047
:102338006c1100000b090000a9000000c900000092
:102348002b1100008d190000ae210000ad1900000e
:102358006b11000029090000c80800008708000068
:1023680088100000aa080000eb0800004b210000bc
:102378002739000050bc00008fcc0000f0cc0000d2
:1023880088920000acb300002ebc0000aba3000094
:102398002cb400002cac00000cb400000cb40000fd
:1023a800ccb300008bab0000ccb300004ec40000df
:1023b800f0d40000cfd40000afcc0000afcc0000b8
:1023c800ccdc00002bd4000089bb000049b300001e
:1023d800eccb00004ecc00000dc400008bab00001d
:1023e8004ec40000afd40000afd400000ccc0000f5
:1023f800e381000003820000848a0000c58a00008f
:1024080044820000237a0000a5920000c58a0000db
:10241800046a0000886a00004b7b0000a96a00007b
:10242800c5490000074a0000c9390000cc2900004e
:102438004c1100002c090000ca000000ea08000046
:102448002b1100008d190000cf210000ce190000cb
:102458008c1100002a090000c8080000a71000001d
:1024680087100000c90800002b0900002a2100007d
:10247800684900000ebc0000cfd40000699300003a
:102488002dc400006fcc000031dd0000ebab000074
:102498000cac00000cac0000ebb30000ccb30000a7
:1024a800abb300004aa300008bab00000dbc0000da
:1024b8006ec4000011dd0000f0d40000f0d400006c
:1024c800cde40000cde40000eee400008ddc000067
:1024d8008edc00002cc400000cc400004dcc0000b1
:1024e8000cc400008ed40000afdc0000ebbb000081
:1024f800458a000066920000658a0000e7920000a5
:10250800247a00008161000084820000a482000017
:10251800a5820000a7720000a9620000cb6200003b
:102528006a4a00000a420000ca310000cc290000b3
:102538006c1900000b090000ca080000ea1000002e
:102548002b1900008d190000cf190000cf190000c9
:102558006c1100002b110000c9080000a808000039
:10256800a7080000e80000000a0900006b29000025
:10257800c8590000ecb300004cc400000cb40000c3
:102588008fcc0000afcc0000efcc0000aaa3000065
:102598008aa30000cbab00000cb40000ecbb000029
:1025a8008bb30000abb300008bab0000acb30000f2
:1025b800ecb300008fcc000072e5000031e50000ac
:1025c80030e50000ced40000aedc0000efe40000ef
:1025d8008dd400006ccc00006ccc00004cc4000012
:1025e8004cc400006ccc0000cedc0000aabb00008c
:1025f800668a00006aab00008cab0000cdb3000017
:10260800aecc00008dcc0000279b0000c58a0000de
:10261800437a0000c77a0000895a00008c4a0000fb
:102628008c4200004c3a0000eb310000cd2900003c
:102638006c1900000b090000c9080000c908000057
:102648002c1900008e190000ef190000ef19000086
:102658008d1900000b110000ca080000c90800000d
:10266800c70000000901000009090000ca3900007c
:10267800855100004dc400000bc40000afd4000019
:10268800afcc0000e89200006dc40000699b000018
:1026980089a300000cbc0000cbbb0000abb300005a
:1026a800abbb0000ecc30000acb300008bab000078
:1026b800ecbb0000edbb00004ecc000051ed00006b
:1026c80073e50000b0d40000d0e40000afe40000df
:1026d800cfec000048b30000eabb00008cc4000047
:1026e800cdcc0000edd400000ee500002ccc00009d
:1026f80066920000878a0000c1400000076200005f
:1027080086920000c79a0000cbb30000e692000052
:10271800a4820000ec9b0000ab620000ee520000b7
:102728008d3a00004d320000ed290000cd2900004f
:102738004c1900000a090000c9000000c90800007f
:102748004d190000ae1900000f1a00000f1a000002
:102758008d1900000b190000ca100000ca00000003
:10276800e9000000c7000000471900008d73000051
:10277800e559000011d500002dcc00006edc0000ea
:1027880010dd0000cfd4000069a30000299b0000e1
:10279800cbb30000cbb30000abbb00008bbb000089
:1027a8008bbb0000ccbb0000ccbb0000ccbb000046
:1027b800ccb30000ccbb00004dcc0000d0dc000046
:1027c80032e50000b0dc0000edd30000c8b2000024
:1027d800e5990000abc300004dc400008ec40000a2
:1027e800efcc0000ced40000efdc00000bcc0000e2
:1027f800abbb00002dbc00004a93000080280000fd
:10280800417100006ab300002dc40000c68a0000b0
:10281800a9a300006b8b0000ac5a00000b2a000033
:102828004d2a00004d2a00000e2a0000ce29000083
:102838004c1900000a090000c9000000a9000000a6
:102848002d190000ae1900000f1a00000f1a000021
:102858008d1900002b190000ea100000eb08000099
:10286800eb000000860000002f7c0000244a0000d6
:102878006a830000898200006bab00000ccc00006a
:10288800afcc00006ec400008aab0000089b0000bb
:10289800abb300002dc400004ab300006ab30000c7
:1028a800ccc30000ccbb00002dc400000cbc000051
:1028b800abb300002dc40000ecc300002dd4000011
:1028c8000dcc00008bc30000638100006389000009
:1028d800a9aa0000edcb0000edbb00004ebc000033
:1028e800b0cc0000afd400008ed40000eccb0000c8
:1028f8008abb0000cbbb0000cfcc000010d5000085
:10290800c38100008ab3000029a30000a68200004a
:102918008b9b0000896200006c4a0000ec290000d3
:102928002d2200002e2a00000f2a0000cf210000cf
:102938006d1900000b090000c9000000a800000084
:102948004d110000ae1900000e2200000f220000f9
:10295800ad1900004b1900000a110000ea08000038
:10296800a9000000ca310000e9620000897b00006c
:102978006662000024490000077a00004ab300009c
:102988004ec400004aa300006aa300004aa3000046
:10299800ccbb0000ecbb00006ab300006ab30000c7
:1029a8008ab300002dc40000ebb300004dbc00004a
:1029b8002dc400002dcc00002dcc0000eccb000075
:1029c80028bb000082810000c8aa0000cdcb00000f
:1029d80043710000e2600000c2580000898a0000cc
:1029e80070cc00004fcc00008fd40000ecc3000076
:1029f800ebc300000bcc000048b300000bc4000080
:102a080029a30000c79a0000447a00002993000017
:102a18006c830000c9390000eb310000ed21000093
:102a2800ee2100002f2200002f2a0000ef210000d5
:102a38006d1900000b090000c9000000a800000083
:102a48004d110000ae210000ee2900000e2200000a
:102a5800cd1900004b1100000a110000e910000018
:102a6800860800002e630000c54100006a8300004c
:102a7800a76a0000e65900004451000062480000bf
:102a8800003800006ba300004aa300002aa300003e
:102a9800abb30000abb300006ab300006aab000040
:102aa800abb300002cbc00008ec400008ec4000034
:102ab8004cc400008dd400004ccc000049b3000089
:102ac80084920000eac30000cbc300000ecc0000d3
:102ad800489200000361000060480000a050000018
:102ae8002682000029a30000ccc30000a7a2000092
:102af8006edc00008ddc0000eee40000cac30000bc
:102b0800ecb30000a58a000084820000c87a0000a7
:102b1800cc620000ab2900008c190000ad19000040
:102b2800cf21000011220000302200000f220000f7
:102b38008d1900002c110000c9000000c70000001a
:102b48006d110000ae210000ee2900000e2a0000e1
:102b5800cd1900004b090000ea080000c810000069
:102b680064080000f0830000696200002b7b00000d
:102b78004a7b0000c86a00006872000084480000b0
:102b8800267a00008bab00002a9b00002aa30000d5
:102b98004aa300008bb300006aab00008aab0000b8
:102ba8000cb400004dbc0000aec40000cec4000050
:102bb800efd40000ced400000ccc0000aac3000063
:102bc8008bc400000bbc0000abb30000ccc30000fa
:102bd800adbb0000cdbb0000a89200002159000049
:102be8000059000021610000c0600000469200000a
:102bf8006edc0000aedc0000aed400006cc4000047
:102c08006aa30000027200004693000029830000b6
:102c1800c93900000a1100008c1100008e11000053
:102c2800b0210000f1210000102200000f22000056
:102c38008d1900000c110000ca000000c700000038
:102c48006c190000ae1900001122000010220000cb
:102c5800ad1900002c110000eb000000e800000096
:102c6800051100000a6b0000876a00006b8b0000ea
:102c7800265a0000cd9300000eac00004bab0000bc
:102c880009a3000009a3000009a30000c8a20000ce
:102c98002aab00004ab300002aab00004aab000090
:102ca800acb300004dc40000cfd40000cfd4000066
:102cb800efdc00008dd400000bc400008cd40000b1
:102cc800cfc400002ec40000adc300008cbb0000c0
:102cd800cabb00000abc000029bc0000c58a00006d
:102ce80080400000003000006050000022690000b1
:102cf8002cc400004fe50000aedc0000cccb000087
:102d0800c4920000447200002c7b0000ca39000005
:102d18004a1900006c1100006c110000ae19000087
:102d2800cf210000102a0000302a00000f220000e6
:102d3800cd1900006b090000e9000000c90000007f
:102d48006c190000ce190000302200002f2200006c
:102d5800cd1900004b1100000b090000ea08000023
:102d6800281900006a5a0000255a0000c77200009e
:102d780046620000ac930000edab00006bab0000b6
:102d880029a300002aa3000029a30000c89a000074
:102d98002aab0000e8a2000029ab000009a300004c
:102da800ccbb0000ecbb0000aecc0000cfd40000d0
:102db8000fdd00006ccc00000bc400004ccc000000
:102dc800d0cc00008fcc00008fd40000b0d400001d
:102dd8002dc400008ed400000ac400002bc40000db
:102de8008aab0000878a000002610000e0680000ea
:102df8000bc40000eee400004ddc00006ac30000d4
:102e0800c68a0000466a00008741000008190000d1
:102e18000a0900004c090000ae190000ae190000b4
:102e2800ef210000102a0000302a00000f220000c5
:102e3800cd1900004b090000e9000000a9000000be
:102e48006d190000ce2100002f2200002e22000064
:102e5800cd1900004b1100000b090000cc08000040
:102e6800ca100000eb410000275200002452000065
:102e78008a8b0000eda30000eeb300002aa3000037
:102e88002aa300004aa30000099b0000e89a00005a
:102e9800c89a0000c79a000009ab000029ab0000df
:102ea800abbb00000cc400008ecc0000efdc0000bf
:102eb800ced400008dcc00002cc400002bc4000030
:102ec800acb3000008930000e3690000e469000067
:102ed800278200002aab00004ed400002ccc000052
:102ee800ecc30000c8a2000043790000669a000005
:102ef80048bb0000cacb0000cbcb0000e8ba0000fa
:102f0800a87a00004541000085180000e91000007b
:102f18000b0100004c090000ae110000ae190000c2
:102f2800ef210000102a0000302a00000f220000c4
:102f3800ad1900002b110000ca0800008908000024
:102f48006d190000cd2100002e2200002e22000065
:102f5800cd1900004c110000eb100000cb10000050
:102f6800ab100000c9100000ac5a0000465a00001f
:102f7800ab9300000dac0000ccab0000e98a000068
:102f8800e99a0000099b000029a3000029a300007a
:102f9800c89a000008a30000e8a2000029ab0000be
:102fa80069b300008ab300002cc400006dcc000097
:102fb800cfdc00004ccc00000bc4000069ab000063
:102fc80083790000a68a0000ca9b0000498b000094
:102fd800803800000030000022610000458a0000af
:102fe800abc30000abcb0000e8b20000459a00007c
:102ff80029bb000069c30000e7aa0000e6a20000a0
:103008000952000064180000a7100000ea08000038
:103018002c0900004d0900006d090000ae190000e0
:10302800ef210000102a0000302a00000f220000c3
:10303800ad1900002b110000a90800006908000064
:103048006d190000cd2100002e2200002f22000063
:10305800ce1900004c110000ea100000c910000051
:10306800ca100000ea100000cb310000cc6a000052
:10307800cca30000ebb300006a9b0000c9820000eb
:103088002a9b0000e99a00004aa30000099b00005f
:10309800e89a0000e7a2000028ab000049b300004e
:1030a80028ab000069b30000aabb00002ccc0000cc
:1030b8004dcc00002cc400006dcc0000efdc0000fb
:1030c800aedc0000efd4000034e6000059ff000039
:1030d80092cd0000d0bc000000280000003800009d
:1030e80026920000ccd30000c6b2000064a2000003
:1030f80008b30000c7aa000085920000437a0000c8
:1031080068310000a7100000c9080000ca000000cc
:103118002c0900004d0900006d110000ad190000d8
:10312800ef2100000f2a0000302a00000f220000c3
:10313800ae1900002b110000a90800006908000062
:103148008d110000ce1900000f2200000f22000090
:10315800ae1900004c110000ea100000c810000071
:10316800e8080000e90000000a1900008d6200006c
:103178006c9b0000cab30000299300000b8b000071
:103188000a9b00002a9b00002aa3000029a3000034
:1031980008a30000e7a2000048ab000028ab00002d
:1031a80049b3000028ab000069bb0000aabb0000bf
:1031b8004dcc00002cc400006dcc00008ed4000063
:1031c800aed40000cfcc000052cd000051cd00009d
:1031d80075ee0000b7fe00000eb4000002590000b2
:1031e800068a0000ebcb0000a4a2000006ab00009a
:1031f80007b30000459a0000047a0000246a000022
:1032080049210000c8100000a9000000ca00000001
:103218000c0100004d0900008d110000ad190000df
:10322800ef21000010220000302200000f220000d1
:10323800ad1900002b110000c90800008908000022
:10324800ae110000cf190000102a00000f22000064
:10325800ad1900002b110000e9100000c90800009a
:10326800090900000a090000c80800006c62000093
:103278006b9b00008aab000009930000ca7a00002b
:103288000a9b00002aa30000099b000009a3000074
:10329800e89a000028a3000089b3000089b3000061
:1032a800aabb000049b300008abb0000cbc30000e2
:1032b800ebc300002cc400004ccc00006dcc000017
:1032c800aed400008fcc00006fcc000010dd0000f1
:1032d8000fdd000052e5000053e5000043690000df
:1032e800e8a200006ccc0000069b00000acc00009d
:1032f80006b3000044920000c5690000c7510000f1
:103308006a210000a7080000c9000000eb080000bf
:10331800eb0000004d1100006d110000ae19000017
:10332800ef2100000f220000302200000f1a0000d9
:10333800ce1900004b110000e9080000a8080000a1
:10334800af110000f0190000302a00000f2a000019
:10335800ac1900002a110000e9100000ca0800009a
:10336800ea080000c9000000ce4a0000f3ac0000e3
:103378002a93000029a3000009930000ea820000b4
:10338800e99a0000c99a00004aab0000e89a0000d8
:1033980049a300006aab0000cbbb0000ebbb0000f8
:1033a8002ccc000069b30000cbc300002ccc00007b
:1033b8000cc40000ebc300000bc400002cc40000c8
:1033c8004dcc00004ed400002dd4000069bb000095
:1033d80069b300004dcc00004aab000029ab0000e7
:1033e800aab300000abc00002bc40000eacb00000e
:1033f80007b300000482000065510000eb410000a3
:103408002811000009110000c8000000c9000000d0
:103418000b0900004c1100006c190000ae210000df
:10342800ce2100000f22000030220000301a0000d8
:10343800ee1900006c090000e9000000a800000077
:10344800b0110000f0190000502a0000ee21000021
:10345800ac1900002a110000e9100000ca08000099
:10346800ca080000870000009bc60000d9e60000db
:103478006a930000e98a000009930000877a000037
:10348800a89a0000c99a0000e9a20000e89a000082
:103498006aab0000cbb30000cbb30000ecbb00006c
:1034a8004dcc00008ab30000abbb00004dcc00003f
:1034b8002ccc00004ccc0000ebc30000ebbb0000a0
:1034c800eccb00006bc3000008b30000aac30000e7
:1034d8000bcc0000aac300006edc0000cbbb0000d0
:1034e8006cc400008ccc00008cd40000ebcb000036
:1034f800c7a20000c6690000ea410000ac21000034
:103508006a190000e8080000c8000000c9080000a7
:103518000a0900002b1100004c1100008d19000051
:10352800ce2100002f22000050220000302200008f
:103538000f1a00006c110000ea000000c90000002a
:10354800d0190000cf19000050220000502a0000b6
:10355800ae2100002b19000009110000e81000003e
:1035680087000000726300005ee700005bef000068
:1035780093c50000c87a0000e98a0000a78200000d
:1035880087920000e99a0000e9a20000c89a0000aa
:10359800abb300008bab0000ecbb0000ecbb000041
:1035a8000cbc0000abb300006aab00000cc4000008
:1035b8006dd400004ccc00002bcc0000ebc3000005
:1035c8000bcc00002cd40000abc30000e7aa00001d
:1035d8002bcc00004cd40000eac30000ebbb000079
:1035e800adcc0000acd4000009cc000028b300002a
:1035f800287a0000a9410000ec2900006b090000ae
:103608000a090000c9080000c9080000e90800000c
:10361800ea1000000b1100004c1900008d19000081
:10362800ce2100000f22000050220000502200008e
:103638000f2200006c110000ea000000c900000021
:103648006d1100000f220000502200000f22000020
:103658008e1900002b19000007110000a4080000b3
:10366800e51000007fe700001ddf00003ce70000d8
:103678009dff00006fa40000a77a0000668200008a
:10368800678a000088920000c99a0000e99a000041
:103698006bab00008bb30000ccb300002dc400005e
:1036a800ecbb0000abb300006aab0000abb300009a
:1036b8006ecc00000ccc00002ccc0000ebc300004a
:1036c8006bcc00004ccc00006dd40000eccb0000ab
:1036d80049b3000068b3000047b30000cabb00004c
:1036e8004cc4000029c4000086b30000e792000023
:1036f8000a520000ee290000ce1900004b1100000c
:10370800ea080000ca000000ca080000ea08000031
:10371800ea0800000b1100002c1100006d190000d0
:10372800ce1900000f2200005022000030220000b5
:10373800ef2100006d110000ca080000a908000070
:10374800ad210000ef2100003022000030220000ef
:10375800ad21000009190000c5100000000000009c
:1037680017be00001bdf00003de700005de700001a
:103778007df700009cff00008b930000467200005c
:10378800477a0000888a0000888a0000c8920000f2
:103798006bab00002aa300004aab0000acb30000ea
:1037a800edbb00008bab00008bab00008aab0000c8
:1037b8002dc40000ecc300000ccc0000cbc30000fb
:1037c8004bc400008cd40000cac30000abc3000087
:1037d80049b3000027b3000047ab0000a9bb0000b5
:1037e800cac3000088bb000026ab0000676a00005f
:1037f800ec310000111a0000af1100006c19000034
:103808000b090000ca080000ca080000c908000027
:10381800ea0800002c1100004c1100006d11000096
:10382800ce1900000e2200002f220000302a0000ce
:10383800ef2100004d190000ca080000a908000087
:103848008c190000ef290000312a00000f2a00001f
:10385800aa210000c5100000220000008a520000c2
:103868007def00003ae700007cef00005def00000c
:103878005def00007df700007cff00002a83000058
:103888002672000088820000677a0000c992000052
:103898000aa300002aab00004aab00006bb300008b
:1038a800ccb300008bab00006aa3000029a3000082
:1038b800cbbb0000cbbb0000eccb0000cbc30000af
:1038c8000bc400000bcc0000a9c3000008b3000023
:1038d80009ab000049ab0000e9bb0000a8bb000031
:1038e80007b30000e8b20000478a0000a8490000ba
:1038f800cc210000311a0000cf1900004c1900003b
:103908000b110000ca080000a9000000a90000006f
:10391800ea0800002c1100004d1100008d11000074
:10392800ce1900000e2200002f2200002f2a0000ce
:10393800cf2100004d190000ca080000a9080000a6
:103948008c190000ce21000050320000cc29000064
:10395800c5080000620000006208000019be0000ef
:103968003de700005ce700005cef00009ef7000008
:103978007ef700007df700005cf700007dff000087
:10398800a972000067720000887a0000a98a000006
:10399800a8920000c99a000009a3000009ab000022
:1039a8004aab00006aab0000c8920000a792000072
:1039b8004aab00002aab00006abb00004abb00000b
:1039c8006bc30000aacb000048bb0000859a00002a
:1039d8008ab30000cbbb000027a30000c4a20000ec
:1039e800c6aa000048920000275100002a290000ba
:1039f800ee2100002f1a00000f2200004d110000d8
:103a08002a110000e9080000e8080000c9080000c1
:103a1800ea0800000c0900002d1100008e110000ba
:103a2800ce1900000f2200002f2200002f2a0000cc
:103a3800ef2100004c110000ea080000c90800004e
:103a48006c190000ed210000cb29000027190000a7
:103a5800a41000008310000041080000b7b5000062
:103a68007fef00005eef00007def00005cf70000d4
:103a78007dff00007df700007def0000bef700002d
:103a88005bff0000886a000047720000888200001f
:103a9800a8920000889a0000879a0000e8a2000017
:103aa800a89a000009a3000087920000668a000017
:103ab8008792000067920000879a000088a20000a1
:103ac800a9b2000087aa000085a2000068b3000020
:103ad800eac30000079b00006492000006ab0000e8
:103ae800a69a000086610000c82000004c11000062
:103af800ce190000ed210000ee2100008e1100001b
:103b080008190000e7100000e7080000e8100000ae
:103b18000a1100002c1100004d1100008e11000048
:103b2800cf1900000f2200004f220000502a000089
:103b3800ef2100006c110000e9080000c800000037
:103b48004c1100004911000006110000c5100000ca
:103b5800c518000083180000210800004e6300000b
:103b6800dff700005fef00007ff700007dff000037
:103b78005cff00007cf700009def0000bee700003e
:103b88009cff0000d9f60000276a0000687a000050
:103b9800678a000047920000479a0000669200007a
:103ba8008692000087920000a7920000668a0000b3
:103bb800c4790000e5810000e58900002692000034
:103bc800c591000067a20000e8aa0000a9bb000098
:103bd80005a30000438a0000aabb000028b3000028
:103be800e4710000a3280000090900008e09000004
:103bf800ee1900000d2a0000ed210000ae090000ba
:103c0800850800004400000064000000a6000000d1
:103c1800e90800000b0900002d0900008e110000c2
:103c2800cf1100000f1a000050220000502a000097
:103c38000f2200006c110000e9000000c80000001d
:103c4800e5180000a4100000c5180000c518000001
:103c5800a5180000a5100000a4100000e41800003a
:103c6800dfff00007eef00007df70000bef70000d8
:103c78007df700009df700007df700007df700004c
:103c88007df70000deff000095c50000276a0000f0
:103c9800898a0000068a0000068a0000068a000059
:103ca800478a0000268a0000268a000066920000e3
:103cb800058a000082790000a2710000e37100000b
:103cc800279a0000a99a00000a9b0000e99a0000c0
:103cd8004492000009d4000088bb0000a97a0000c3
:103ce80086080000c90000002a0900008c1900009d
:103cf8000e2200002f2200000d2a000064000000a0
:103d080040080000610800008210000063180000ed
:103d180086180000ea1800006e1100008e090000e5
:103d2800ce1900000d2200006e2a00004f2200006c
:103d3800301a00008e190000ab1000004a10000075
:103d4800e5180000e5180000a41000008410000029
:103d5800a5180000e6180000a410000001000000eb
:103d680039c600009ef700009df700007def0000b7
:103d78009df700007df700007df700009df700002b
:103d88009df700007df70000dfff0000b2ac0000e7
:103d980048720000688a0000068a000067920000e6
:103da80005820000047a0000e4790000e581000043
:103db800c5810000268a0000878a0000257a000055
:103dc800c5790000268a00000482000025820000d0
:103dd800aab30000c9bb0000e79a000065490000cb
:103de80085080000c90000002b0900006c190000bc
:103df800ee2100002f220000ed2100000400000049
:103e08004008000061080000a310000083180000ab
:103e180084180000291900002c090000af110000c7
:103e2800ce1900000e2200006f2a00007022000048
:103e3800301a00008c1100000a19000087100000d9
:103e4800a4100000c5180000a4100000a410000071
:103e5800a4100000a4100000a4100000220000001c
:103e68006e730000dfff00005cef00009df70000ac
:103e78007df700009df700007df700007df700004a
:103e88007df70000bef700009ef70000dfff00008e
:103e9800ae8b0000a97a000067820000048200004f
:103ea8002582000005820000c4710000a569000099
:103eb800a5710000a5710000e679000026820000c7
:103ec80046820000458200008592000027ab000072
:103ed80068b30000c79200006872000083180000f1
:103ee80066080000a80800000a1100004c1900002c
:103ef800ce210000302a0000ed2900000400000057
:103f08004108000062080000621000004110000033
:103f180082180000061100006c1100008f110000cb
:103f2800d01900000f2a00004f2a0000502200007c
:103f38002f1a00006b11000089210000872900005a
:103f4800c4180000a410000084100000a510000090
:103f5800a410000084100000a4100000a4100000a9
:103f680082100000ffff00009ef700003cef0000f9
:103f78007df700007df700005def00009df7000071
:103f88009df700007def00009eef0000dff70000c6
:103f98009df70000676a0000e78a0000868a000033
:103fa800e581000006820000e6710000a5690000b6
:103fb800a66900004461000083690000e471000004
:103fc800448a0000a68a0000868a0000c5aa00006c
:103fd80006b30000c88a0000a83900008700000066
:103fe8008700000086100000e91800004d1100004d
:103ff800af190000102a0000ee3100008708000009
:104008004008000041080000200000008010000067
:10401800a0100000c30800006a1100008f11000002
:10402800d1210000102a0000502a00005022000070
:104038002f1a00008b110000c829000068420000f8
:10404800e5180000a4100000a4100000841000006f
:1040580084100000a4100000a4100000a4100000a8
:104068000100000096b50000dfff00009df700008a
:104078001ce700007df700007df700007df70000d9
:104088007cf700009df70000deef00009def0000c8
:10409800bdf70000d9ee0000e5690000a78a00001e
:1040a80026820000067a0000c5710000c571000074
:1040b8008469000063610000826900008269000071
:1040c800a1790000457a0000878a0000659a0000ff
:1040d800449a0000076a000049190000ca0000005d
:1040e800a700000065100000c81800004d1100006e
:1040f800b0110000102a00000e3200002a11000042
:104108004000000000000000200000000000000047
:1041180020080000810000006a1100006e110000f4
:10412800b1190000f0290000502a0000702a000090
:104138002f220000ab19000067190000694a00002f
:10414800c4180000a4100000c5180000a410000046
:1041580084100000a4180000a4100000c418000077
:10416800831000008b520000dfff0000deff00001c
:104178009ef700007df700007df700007df7000046
:104188009cff00007cf700009cf70000bcf70000d3
:104198007cf700007dff000096d50000066a00004d
:1041a800a78a000065820000e5710000e67900003a
:1041b800c57100008369000082610000a3690000e6
:1041c800e479000005820000468a0000268a000083
:1041d800077a0000c95100004a110000c800000019
:1041e800a600000086080000e91000006d1100001c
:1041f800cf190000102200000f2a00008c110000c7
:104208000000000020000000000000000000000086
:104218000000000020000000090900006f110000e4
:1042280090190000f0290000502a0000702a0000b0
:104238002f220000ac190000071100000a3a000004
:10424800a41000008310000084100000a4180000cf
:10425800c5180000c5180000c4180000c4180000e4
:10426800c418000021000000bff700009ef70000fe
:104278009df70000beff00009df700009df70000bd
:104288007dff00005cf700009df700009cf7000030
:104298009dff00001df700005eff000054cd0000e8
:1042a80004620000236a0000e4690000267200002e
:1042b800c56900008361000063610000c6690000f1
:1042c800c5610000c4790000e5810000e8710000c4
:1042d800cb510000cd3100004a190000a7080000aa
:1042e800a6000000c70000000a0100008d110000b0
:1042f800ef1900000f2200000f220000cd1100006e
:10430800830800000100000000000000852900006b
:1043180000000000010000004b1100008e11000099
:10432800b0190000f0210000302a000050220000df
:104338002f220000cd210000e91000004a210000d2
:10434800831000008410000083100000a4100000f7
:10435800a4100000a4100000c5180000a41000005c
:10436800c418000042080000d39c0000ffff0000b2
:10437800dfff00009df700009df70000bdf700007b
:104388007eff00009eff00007df700009df7000003
:104398009eff0000bfff00009eff00009dff000081
:1043a8001af700006c83000060200000c230000093
:1043b80044490000855900000449000004510000e8
:1043c8006449000063590000e77100008949000052
:1043d800ee310000ef2100004b190000a608000094
:1043e800a5080000c80000000a0100006c110000c8
:1043f800ce2100000f2a0000ee190000ad110000c8
:1044080029210000240000000200000062080000ca
:1044180082100000640000006b1900008e1100007b
:10442800d0210000f0290000302a0000702a000086
:104438004f220000cd190000ea10000069080000b2
:10444800630800008410000084100000831000003e
:10445800a4100000a4180000a4100000c418000054
:10446800a41800006210000008420000ffff0000ce
:10447800beff0000ffff0000beff0000deff0000df
:104488009fff00009fff00009eff0000bff7000095
:10449800bfff0000bdf70000feff0000ffff0000a7
:1044a800dfff00004e520000250800000200000057
:1044b80002080000a5280000664900000a830000e1
:1044c800d1b4000037de0000674100004a2900002f
:1044d800102a0000302200004b110000a70800003d
:1044e800a6080000c80000000a0900006d110000bd
:1044f800cf2100000f2a0000ee2100008c110000df
:104508000c190000ea10000087000000630000009a
:1045180067290000482100002a1100008e110000c0
:10452800cf190000f0210000502a0000702200007e
:104538004f220000ad190000ea10000089080000b1
:104548004208000083100000831000008310000060
:10455800a4100000a4180000a4100000a41000007b
:10456800a4180000e518000001000000dfff0000ab
:10457800ffff0000ffff0000ffff0000bdff00007d
:10458800bfff00009ff70000dfff0000beff000034
:10459800def70000ffff0000fff70000dbb50000ba
:1045a80070420000d34a0000b34a00000f320000f6
:1045b800ca100000f1620000bfff0000b7ee000063
:1045c800b7de000099de0000010000006a19000053
:1045d800712a0000101a00006c110000c8080000c1
:1045e800a7080000a8080000ea0800004c11000015
:1045f800cf2100000f2a0000ee2100008c190000d6
:10460800ec100000cb080000ea080000c71000000a
:10461800020000006c420000090900006d11000052
:10462800cf19000010220000502a0000702200005c
:104638004f220000ad1900000a110000a808000070
:10464800630800008310000083100000831000003e
:10465800a4100000a4180000a4100000c418000052
:10466800a4180000a418000042080000b7bd00000c
:10467800ffff0000dfff0000deff0000feff00007c
:10468800dcf70000ffff0000bfff00009dff0000f7
:10469800fdff0000ffff0000125b00006b00000040
:1046a80031320000d33a0000d33a000095320000be
:1046b800f2290000aa10000056ad00003af70000e9
:1046c80097ce000057ce000000000000a6000000b2
:1046d800502a0000302200002b0900008808000042
:1046e80087000000a8000000ca0800004c1900005c
:1046f800ae21000010220000ee2100008c190000fd
:104708000d190000ec080000ca000000e8100000c5
:10471800a4080000882900004a1900006d11000053
:10472800af190000ef2100005022000050220000c5
:1047380030220000ad1900000a090000c80000007e
:10474800631000008310000083100000630800005d
:1047580083100000a410000084100000a4100000c2
:10476800a4100000a410000083100000ab52000049
:10477800ffff0000ffff0000beff0000deff00009b
:10478800fbf70000feff0000deff0000ddff000079
:1047980039f70000094a0000ea18000070210000fb
:1047a8004e1100004c0900004d090000b63a000007
:1047b800763a00006f210000893100009df7000063
:1047c80019d7000011a50000000000002300000018
:1047d800ac1900000f2200004b11000088080000ef
:1047e80087080000a8080000ca0800004c11000053
:1047f800ce190000102200000f1a0000ac110000b2
:104808000a1100000b090000aa00000008110000ae
:10481800a408000047210000291100006e110000c3
:104828008f190000ef2100004f22000050220000e5
:1048380030220000ae1900002b110000c800000053
:10484800831000008410000063100000630800005b
:104858008310000083100000831000008310000004
:10486800841000008310000063100000620800003c
:10487800ffff0000ffff0000feff0000deff00005a
:10488800fdf70000feff0000dfff0000baee0000a9
:10489800476200008d7b0000d9bd00002b19000085
:1048a8006e1900006e110000cf190000733200006d
:1048b800f74a0000123a0000e9180000f8bd0000ad
:1048c80039ef000090940000000000000100000093
:1048d800c61000002d3a00004a110000a800000090
:1048e8008700000087080000c90800004c1100007c
:1048f800cf190000302200000f1a0000ad1100008f
:1049080029110000c9000000ea000000c7080000e3
:10491800a408000027190000091100004d1100002b
:104928008f190000ef2100002f2200005022000004
:1049380030220000af1900002b110000c900000050
:104948006310000083100000831000006310000053
:10495800a3100000a41000008310000083100000c2
:1049680063100000a4100000831000000000000085
:1049780059ce0000ffff0000bef70000feff000058
:10498800fef700007cef00009ae6000059e6000000
:1049980079e60000f9ee00003aef000057a50000a4
:1049a80089080000d1290000d121000073320000dd
:1049b800d6420000b54a0000c81800006e73000017
:1049c8005aff0000b19c0000000000002108000010
:1049d80082180000e518000049190000a70000002f
:1049e8008608000086080000c80800004c0900007e
:1049f800ae1100000f220000ee2100008d11000012
:104a0800291100000a090000a8000000e8080000b9
:104a1800c510000006190000e80800004c1100004d
:104a28008e190000ce2100002f2200005022000025
:104a380030220000cf2100002b110000a900000047
:104a480042080000631000006310000063100000bb
:104a58008310000083100000631000008310000022
:104a680084100000a4100000841000000100000061
:104a7800f07b0000ffff0000feff0000bdf7000014
:104a88009eef0000dfff00009eff00001cf7000003
:104a98003cff0000b9ee000098e600009eff000011
:104aa800717300006d2900007019000051090000a1
:104ab800542a0000523a000028290000e749000063
:104ac8007bff0000b5c5000089520000611000009e
:104ad80082100000c310000005190000e610000055
:104ae800c5100000c6100000e90800004b090000ce
:104af800ad190000ee290000ef2100008e1900001a
:104b08000a1100000b090000c9000000a7000000fe
:104b1800a510000007190000491900002b1100001a
:104b28008d190000ce210000102200003022000064
:104b380030220000ce2100002b110000a900000047
:104b480042080000631000006310000063100000ba
:104b58008310000083100000831000008410000000
:104b68008410000063080000841000008310000017
:104b780066310000ffff00009df700009df7000070
:104b8800bef70000dfff0000beff00009dff000031
:104b98005cf700007ae600009cee00003dff000094
:104ba8007dff0000ce520000123200001a430000c0
:104bb800520900003032000077ad0000b5c5000092
:104bc80059d6000099e600001aff0000ca620000ea
:104bd80062000000c4080000e3180000042100007f
:104be80026210000281100002a0900004b110000ae
:104bf800ac210000ee290000ef2900008f19000009
:104c08002c110000cb000000ca000000c8080000fa
:104c1800a6100000c61000000c3200002a0900008f
:104c2800ad190000ce210000102200003022000043
:104c380030220000ce2100002a110000a900000047
:104c4800000000000000000000000000005f0000fd
:104c5800000000000007000000070000001400002a
:104c68007f1400007f140000242a00006b2a000033
:104c78001223000013080000646200003649000097
:104c88005532000040000000090700000000000045
:104c9800001c00002241000000000000412200002a
:104ca8001c000000140800003e0800001408000062
:104cb800083e000008080000005000003000000016
:104cc8000008000008080000080800000060000054
:104cd800600000000020000010080000040200002e
:104ce8003e510000494500003e000000427f0000a0
:104cf80040000000426100005149000046210000c8
:104d0800414500004b31000018140000127f0000dc
:104d18001027000045450000453900003c4a0000c6
:104d28004949000030030000710900000503000034
:104d3800364900004949000036060000494900008c
:104d4800291e0000003600003600000000000000a8
:104d58005636000000000000081400002241000040
:104d68000014000014140000141400000041000096
:104d7800221400000802000001510000090600008a
:104d880032490000794100003e7e00001111000008
:104d9800117e00007f49000049490000363e0000ae
:104da80041410000412200007f41000041220000f3
:104db8001c7f000049490000494100007f090000ac
:104dc80009090000013e000041410000497a000045
:104dd8007f080000080800007f000000417f0000f5
:104de8004100000020400000413f0000017f00001a
:104df80008140000224100007f40000040400000ed
:104e0800407f0000020c0000027f00007f020000cb
:104e1800040800007f3e000041410000413e0000c0
:104e28007f09000009090000063e0000415100000a
:104e3800215e00007f090000192900004646000095
:104e48004949000049310000010100007f010000cc
:104e5800013f000040400000403f00001f200000cc
:104e6800402000001f3f000040380000403f000085
:104e780063140000081400006307000008700000b5
:104e8800080700006151000049450000437f000009
:104e9800414100000000000002040000081000006a
:104ea8002000000000410000417f000004020000d3
:104eb80001020000044000004040000040400000a3
:104ec800000100000204000000200000545400000b
:104ed800547800007f48000044440000383800003f
:104ee80044440000442000003844000044480000c6
:104ef8007f3800005454000054180000087e000059
:104f080009010000020c000052520000523e00004d
:104f18007f0800000404000078000000447d0000c1
:104f28004000000020400000443d0000007f0000d9
:104f38001028000044000000004100007f400000ed
:104f4800007c000004080000047800007c080000d1
:104f5800040400007838000044440000443800008d
:104f68007c14000014140000080800001414000049
:104f7800187c00007c0800000404000008480000b9
:104f88005454000054240000043f00004440000032
:104f9800203c000040400000207c00001c20000055
:104fa800402000001c3c000040300000403c000055
:104fb8004428000010280000440c00005050000055
:104fc800503c000044640000544c000044000000c1
:104fd8000836000041000000000000007f000000cb
:104fe800000000004136000008000000180400001e
:084ff800081000000c0000008d
:020000040000fa
:105000001600fa006007980071079800020f9800d8
:10501000130f9800240f98008e0a90006e029000e3
:105020000482520004f0a7000402ea00140798006a
:105030009e0a90007e0290000482520004f0a700b5
:105040000402ea0024079800ee0290000e0a900085
:10505000848f520002003d00140020000100370040
:105060000082eb0034079800fe0290001e0a9000b8
:10507000848f520002003d00140020000100370020
:105080000082eb00440798009e0290002e029000e0
:10509000048f520001003700000000002e0990002c
:1050a000fe0090006e0090001d070700ee029000c9
:1050b0000e0a9000848f520008003a00fe02900011
:1050c0001e0a9000848f520004003a00b4002000b1
:1050d000040078000080fa00000006001e0278003c
:1050e00004024200540798002e0290008402ea0055
:1050f0005e029000848f520006003d002e02900058
:105100001e0f1200ee0290003e0290000482420048
:1051100064079800de0290001e029000848f520007
:10512000ddff3d001e0290001e0f4200fe029000b7
:105130004e0290000482420074079800d7ff3700a7
:105140000a00fa001007980021079800320798001b
:10515000430798003e029000e00f520007003d0018
:105160003e0290000402ea0034079800ae0290006c
:105170003e02900004825200240798000002eb00d7
:10518000040f7800070037002e0290001e02420034
:105190004e019000840078001e009000e006070099
:1051a0001e0fe8003e0290009e027800848f52009d
:1051b000f5ff35000080fa00000006000a00fa0042
:1051c00010079800210798003207980043079800bd
:1051d0003e029000e00f520007003d003e029000aa
:1051e0000402ea00340798009e0290003e029000fc
:1051f00004825200140798000002eb00040f7800ac
:10520000070037001e0290001e0242004e0190006f
:10521000ae00900004007800c10607001e0fe800f1
:105220003e0290009e027800848f5200f5ff350008
:105230000080fa00000006000a00fa00000f780063
:105240001107980022079800330798004407980038
:10525000ce0190002e0190009e0090001e0078006c
:10526000d6ff07009e0290003e029000048242009a
:105270000402e900ce0190002e0190008400780025
:105280001e007800cdff0700ce0190003e01900087
:105290009e0090001e007800a9ff07002e029000db
:1052a0001e0242000402e900ce0190003e0190007f
:1052b0009e00900004007800a1ff07000080fa0023
:1052c000000006000e00fa00000f78001107980099
:1052d0002207980033079800440798005507980064
:1052e000660798006e029000be0190002e019000ab
:1052f0009e0090001e00780041ff07006e029000a3
:10530000de0190004e019000be0090002e00900043
:105310003bff07006e029000de0190004e019000fe
:105320009e0090001e00780035ff07000080fa0004
:10533000000006001400fa0050079800610798006a
:1053400072079800030f9800140f98007e029000d7
:10535000040f78000002eb0014079800fe02900092
:10536000e4ff2f0084aab9000402e8002407980093
:1053700014002000340798000002eb004407980056
:10538000710037000e0a9000cfa2de003600200028
:1053900007002000860f5200878f5a0051003e0000
:1053a000040601003c0037002800370014003700d5
:1053b00000003700ee0290001e029000848242003e
:1053c0005e0290001e0242001e09900085007800d7
:1053d00004007800520607006e0290009e02420010
:1053e0005e0390001e029000040243001e0990001c
:1053f000850078000400780049060700390037006e
:105400006e0290009e0242005e0390001e02900019
:10541000040253001e099000850078000400780003
:105420003f060700ee0290001e02900084824200b8
:105430005e0290001e0252001e0990008500780056
:10544000040078003606070026003700ee029000c0
:105450001e029000848252005e0290001e025200e2
:105460001e09900085007800040078002c060700d3
:105470006e0290009e0252005e0390001e02900099
:10548000040253001e099000850078000400780093
:1054900023060700130037006e0290009e025200a0
:1054a0005e0390001e029000040243001e0990005b
:1054b000850078000400780019060700ee029000cd
:1054c0001e029000848252005e0290001e02420082
:1054d0001e0990008500780004007800100607007f
:1054e000000000001e0290000402e800140798006b
:1054f000ce0290003e0290000482420044079800d1
:105500003e0290000482e800340798004e029000aa
:1055100004024200840278002e02900004824200bd
:10552000e00f5200080034001e0fe900ce02900088
:105530002e02900004824200440798002e02900040
:105540000482e800240798001e0290009e02780062
:10555000848f52008bff3d000080fa00000006009f
:105560001200fa005007980061079800720798002f
:10557000030f98007e029000040f78000002eb00f9
:1055800014079800fe029000e4ff2f0084aab900df
:105590000402e80024079800140020003407980053
:1055a0000002eb004407980061003700ee02900013
:1055b0001e029000848242005e0290001e024200a1
:1055c0000e0990008500780004007800d4050700db
:1055d0006e0290009e0242005e0390001e02900048
:1055e000040243000e099000850078000400780052
:1055f000cb0507006e0290009e0242005e03900001
:105600001e029000040253000e09900085007800ed
:1056100004007800c2050700ee0290001e02900010
:10562000848242005e0290001e0252000e09900029
:105630008500780004007800b9050700ee029000ac
:105640001e029000848252005e0290001e025200f0
:105650000e0990008500780004007800b00507006e
:105660006e0290009e0252005e0390001e029000a7
:10567000040253000e0990008500780004007800b1
:10568000a70507006e0290009e0252005e03900084
:105690001e029000040243000e099000850078006d
:1056a000040078009e050700ee0290001e029000a4
:1056b000848252005e0290001e0242000e09900099
:1056c0008500780004007800950507001e02900010
:1056d0000402e80014079800ce0290003e029000f9
:1056e00004824200440798003e0290000482e800d1
:1056f000340798004e0290000402420084027800b1
:105700002e02900004824200e00f52000800340094
:105710001e0fe900ce0290002e029000048242008b
:10572000440798002e0290000482e80024079800a5
:105730001e0290009e027800848f52009bff3d0065
:105740000080fa00000006000c00fa00000f78004c
:105750001107980022079800330798004407980023
:1057600055079800ce029000e4ff2f0084aab900ec
:10577000840278002e029000848242004e02900043
:105780001e024200de019000050178009e0090009c
:105790000400780089fe0700ce029000e4ff2f008d
:1057a00084aab900840278002e029000048342008b
:1057b0009e0290003e029000048242008402e900b2
:1057c0004e0290001e024200de01900006017800a9
:1057d000850078000400780078fe0700ce02900073
:1057e000e4ff2f0084aab900840278003e029000f2
:1057f000848242001e0390004e0290000402430087
:10580000de01900005017800840078001e00780019
:105810004bfe0700ce029000e4ff2f0084aab900df
:10582000840278003e029000048342009e029000b1
:105830004e029000848242002e0290001e0242001e
:105840000402e900de01900006017800850078007e
:10585000040078003afe07009e0290004e0290007d
:10586000048342004e0290009e0242005e029000bd
:10587000130020004e01900086007800050078009b
:10588000acfe07009e0290004e029000048342008e
:105890002e0290009e0242004e02900004825200ae
:1058a0008402e9005e0290008001eb004e0190004e
:1058b00086007800050078009efe07009e0290009a
:1058c0003e029000848242004e0290000482520008
:1058d0000403e9002e0290009e0242004e02900056
:1058e000048252008402e9005e029000330020002e
:1058f0004e01900086007800050078008dfe0700bc
:105900009e0290003e029000848242004e0290006f
:10591000048252000403e9004e0290009e024200fd
:105920005e029000230020004e0190008600780067
:10593000050078007ffe07000080fa0000000600e6
:105940000c00fa0010079800210798003207980011
:1059500043079800540798001e029000040f780037
:1059600006003700de0190004e019000ae0090006e
:105970001e007800f2fd07001e0fe800be02900036
:105980001e029000048242009e0f5200f5ff3c0070
:105990000080fa00000006001600fa005007980088
:1059a0006107980072079800030f9800140f980081
:1059b000250f98007e029000040f78000002eb0093
:1059c00014079800fe029000e4ff2f0084aab9009b
:1059d0000402e8002407980014002000340798000f
:1059e0000002eb00440798005b0037001e0a90009d
:1059f000e00f52001e003a001e0290000402420016
:105a00008402e8000e0a900004834200ee02900037
:105a10001e029000848252005e0290001e0242002c
:105a2000ae09900006017800850078000400780037
:105a3000c3fd07001e027800040242008402e80051
:105a40000e0a9000048342006e0290009e025200f3
:105a5000de0390001e02900004824300ae09900015
:105a6000060178008500780004007800b4fd070086
:105a70001e0a9000e10f52001e003a001e02900024
:105a8000040242008402e8000e0a900004834200ef
:105a9000ee0290001e029000848252005e0290008e
:105aa0001e025200ae0990000601780085007800c1
:105ab00004007800a2fd07001e02780004024200e4
:105ac0008402e8000e0a9000048342006e029000f7
:105ad0009e025200de0390001e02900004825300da
:105ae000ae09900006017800850078000400780077
:105af00093fd07001e0290000402e80014079800be
:105b0000ce0290003e0290000482420044079800ba
:105b10003e0290000482e800340798004e02900094
:105b200004024200840278002e02900004824200a7
:105b3000e00f5200080034001e0fe900ce02900072
:105b40002e02900004824200440798002e0290002a
:105b50000482e800240798001e0290009e0278004c
:105b6000848f5200a1ff3d000080fa000000060073
:105b70000e00fa00100798002107980032079800dd
:105b80004307980054079800650798002e0290007c
:105b9000040f78000f003700de029000e4ff2f00b2
:105ba00084aab900840278003e02900084824200f8
:105bb0001e0390005e02900004024300ee0190007c
:105bc000050178009e007800040078007bfd070046
:105bd0001e0fe800ce0290002e02900004824200c8
:105be0009e0f5200ecff3c00de029000e4ff2f000d
:105bf00084aab900840278004e0290000482420018
:105c00000400e900ae0290005e029000848342002e
:105c10009e0290003e029000848242005e0290004c
:105c2000048252000403e900ee0290000002eb003f
:105c3000800178005e0190008700780006007800ff
:105c400055ff0700de029000e4ff2f0084aab90090
:105c5000840278004e029000048242000400e900b1
:105c6000ae0290005e029000848342009e0290008b
:105c70005e02900004834200ee02900014002000b7
:105c8000800178005e0190008700780006007800af
:105c900041ff07000080fa00000006000800fa003b
:105ca000000f78001107980022079800330798002a
:105cb0002e029000040242008402e8001e039000bd
:105cc0002e02900004025300be01900005017800ee
:105cd000840078001e00780019fd0700be029000c5
:105ce0000002eb008001eb002e0190009e0090006e
:105cf0001e00780028ff0700be029000140020005c
:105d00008001eb002e0190009e0090001e007800a4
:105d100021ff07000080fa00000006001400fa00ce
:105d20005007980061079800624f9800030f980091
:105d3000140f98006e4a9000ff4f52000400360086
:105d4000ee4a9000e4c7b30084cf52000200360050
:105d5000b400200056003700ee4a900004ceb30095
:105d600004c24200644f98005e009000000f78006b
:105d70004700370014c0b300044f9800ee009000b5
:105d800011079800390037000002eb003407980033
:105d90002b0037000002eb00240798002100370099
:105da0006e4a90008482fb005e0290001e03120087
:105db00004808000110009000403d800000278006c
:105dc000e52bb900860278000482420045622a0071
:105dd00004824200944278000e4a900004c262009d
:105de000e04f5200020032000e0a9000010037001e
:105df0001e0a90001e039000ae02900005034300af
:105e0000be0290009e824200040178008600780065
:105e100005007800c20307002e0290000402e8008b
:105e20002407980004808000ae029000848f520006
:105e3000dbff35003e0290000402e80034079800c2
:105e400004808000be029000848f5200d1ff350094
:105e50000e4a900004424200044f980004808000e3
:105e60009e02900004824200140798000480800083
